:020000041000EA
:1000000000B5324B212058609868022188439860DF
:10001000D860186158612E4B002199600221596106
:100020000121F02299502B49196001219960352056
:1000300000F044F80222904214D00621196600F024
:1000400034F8196E01211966002018661A6600F04E
:100050002CF8196E196E196E052000F02FF8012189
:100060000842F9D1002199601B49196000215960AB
:100070001A491B48016001219960EB211966A021F2
:10008000196600F012F800219960164914480160C1
:100090000121996001BC002800D000471248134993
:1000A000086003C880F30888084703B5996A0420EC
:1000B0000142FBD001200142F8D103BD02B5186610
:1000C0001866FFF7F2FF186E186E02BD00000240BE
:1000D000000000180000070000035F00212200005C
:1000E000F4000018222000A00001001008ED00E03C
:1000F00000000000000000000000000074B24E7A12
:1001000000200420F7010010C3010010C5010010F9
:10011000C1010010C1010010C1010010C101001097
:10012000C1010010C1010010C1010010C701001081
:10013000C1010010C1010010C9010010CB01001065
:10014000CD010010CD010010CD010010CD01001037
:10015000CD010010CD010010CD010010CD01001027
:10016000CD010010CD010010CD010010CD01001017
:10017000CD010010CD010010CD010010CD01001007
:10018000CD010010CD010010CD010010CD010010F7
:10019000CD010010CD010010CD010010CD010010E7
:1001A000CD010010CD010010CD010010CD010010D7
:1001B000CD010010CD010010CD010010CD010010C7
:1001C00000BE00BE00BE00BE00BE00BEEFF3058054
:1001D000103800BEF2EB88713CB601105CB601101D
:1001E0003802001090A31AE71E481F49086006C88D
:1001F00081F3088810471D480068002801D019487D
:10020000F3E70DA40ECC002902D000F012F8F9E7B4
:100210001749184A002000E001C19142FCD116495B
:100220008847164988471649884700BEFDE701C937
:1002300001C29A42FBD370475CB60110C000002097
:100240000C180020A8CD011000000420000004209C
:10025000A8CD0110001004200010042000000000B0
:10026000704700000000000008ED00E0000000D032
:100270000C180020889C0220794B0010A106001069
:10028000714B0010F8B5C0460448054B10B58342C9
:1002900003D0044B002B00D0984710BD0C18002051
:1002A0000C1800200000000006480749091A8B10AE
:1002B000C90FC91810B5491003D0044B002B00D04A
:1002C000984710BD0C1800200C18002000000000FA
:1002D00010B5074C2378002B09D1FFF7D5FF054B4C
:1002E000002B02D0044800E000BF0123237010BDA2
:1002F000C861002000000000009E0110054B10B5F1
:10030000002B03D00449054800E000BFFFF7CCFFF5
:1003100010BDC04600000000CC610020009E01100E
:10032000F0B557464E464546DE46244BE0B5994665
:10033000234B83B09846234B234C0193234B244FEC
:100340000093244B244D9A46244B254E9B464B4606
:1003500001211868494208F0C5F9002204210F2044
:1003600000F018FC43461B6800222100380023607F
:100370000BF0AAF8021E1BD123682A68934215D2FB
:100380000022310000982B6033600BF09DF8021EB4
:1003900007D15346002200211868002307F050FFC0
:1003A000D5E77221019804F0F7FDF2E75B46F1E72B
:1003B0006D21019804F0F0FDDEE7C046C474002012
:1003C0006C770020009E011070770020A86A002042
:1003D00018780020B06B0020A00F00207874002057
:1003E000A46A002000B583B00F2801D003B000BD7F
:1003F0004907FBD501F092FC002925D0FA22002301
:10040000920002F029F8134A1368C31AC82BEDD9D9
:10041000106001F083FC104A104B126801A9801A89
:1004200018608022D02352021B069A610023019398
:100430000B4B186808F08AF8019B002BD6D080225D
:10044000084B52051A60D1E7FA21890001F0C6FF76
:10045000D9E7C0466C740020147800206C77002027
:10046000C474002004ED00E030B595B002A80BF094
:10047000E1FE0022002102AB07A80BF009FE334D7C
:10048000021E3AD1324A6846324907AB0BF04AFEA7
:10049000021E52D10CF066FD2F4C0200694620006E
:1004A0002E4B0BF079FE021E3FD10CF05BFD2C4C65
:1004B0000200694620002B4B0BF06EFE021E2CD171
:1004C000294C0122200002AB07A90BF0B7FB021E4A
:1004D0001BD10022254B1A600023254A20000BF077
:1004E00053FC09F0BDFA012803D00A200AF01CF9D8
:1004F000F2E70A2001F068FBEEE78521280004F00E
:100500004BFD002009F07EFFBCE79C21280004F091
:1005100043FD002009F076FFDBE79421280004F07A
:100520003BFD002009F06EFFCAE78C21280004F093
:1005300033FD002009F066FFB7E78921280004F0A9
:100540002BFD002009F05EFFA4E7C0462C9E0110A1
:10055000549E0110589E011018780020709E0110C2
:10056000A86A0020809E0110E05E002070770020C5
:1005700080969800F8B5CE464746224B80B59946FE
:10058000214B224E98464B460121FA2718684942D2
:1005900008F0A8F81E241E4D7F0410E019200AF070
:1005A000C3F833681B0C1B042B6009F059FA0128AF
:1005B00019D01920013C0AF0B7F8002C19D0336883
:1005C0007B401B0C1B042B6009F04AFA0128E5D183
:1005D000192001F0F9FA33681B0C1B042B6009F099
:1005E0003FFA0128E5D11920013C01F0EDFA002C79
:1005F000E5D14346002200211868002307F020FEC1
:10060000C1E7C046B06B0020787400202000054090
:1006100020100540F8B5D025134F144E2D060DE0DF
:1006200020000AF081F880235B026B6101F076FB09
:100630000122306004210F2000F0ACFA012138685B
:10064000494208F04FF817F053FE094901F09EFEA9
:10065000FA239B00CC1809F003FA0128E0D120000E
:1006600001F0B2FADFE7C046787400201478002069
:10067000B80B000010B50421132000F05DFA002231
:10068000064B5A61DA611A62FA2292005A62FA2221
:10069000D2009A6101225A6110BDC0460000054097
:1006A00010B582B004F056FB102000F007FBD024F8
:1006B000802324065B0263620F20A36100F0FEFA30
:1006C00080231B02A362002201210F2000F04EFABA
:1006D000012204212E4B0F2000F088FAFFF7CAFFF9
:1006E000192000F0EBFA80239B04636203220021AF
:1006F000012007F051FD274C03222060002101203A
:1007000007F04AFD244B032218600021012007F066
:1007100043FD224B0022186000210023206807F0CF
:100720008FFD1F491F4B01911F49204A0091012055
:1007300000210BF02DFE1E4B8022019302231D4948
:100740000093920000231C4809F084FD01248022BC
:100750001A4B1B490193920000231A48009409F098
:1007600079FD8022184B1949019392000023184803
:10077000009409F06FFD8022164B174901939201F6
:1007800000231648009409F065FD09F099FDFEE785
:10079000E503001078740020B06B0020C4740020C2
:1007A0006108001025080010290800100908001031
:1007B00098770020949E011021030010747400208B
:1007C000A49E011015060010AC6B0020B09E011015
:1007D000750500109C770020BC9E01106904001074
:1007E00010B50C0001F09AFA0023064A01F034FE1D
:1007F00053019B1A9B009A18D20020606160A2608E
:10080000002010BD40420F0010B5054C2378002B8E
:1008100001D1012010BD04F09DFA00232370F8E7F8
:10082000A40F002001207047F0B5C6460F00160047
:10083000984600B5002A0ED0002402E00134A642FA
:1008400009D03D5D280004F0D5FA8542F6D0012399
:10085000424626001370300080BCB846F0BDC0464A
:10086000F0B5C64600B517001C00884601F056FAE0
:1008700002000B00002F23D06101091B8900091918
:10088000C9000C00CD17A4185D41002608E004F053
:1008900065FA831C0DD0434698550136B7420BD0FC
:1008A00001F03CFA22002B00121A8B411000002BA1
:1008B000EDDA0123069A1370300080BCB846F0BD13
:1008C0000026F9E7D0231B061B68974A9900F0B56C
:1008D0004E46894651585A4253412F225746454663
:1008E000DE465B4293439846904BE0B59C4683B00E
:1008F00000270191E044002939D08D4B0F269B46FB
:100900004246FB0808339B009C5801233D009A4651
:100910000837002C22D031002140264218D05B46F7
:100920004A469A582B00EA40203BDB1713405246B8
:1009300013420DD1072208002A4092009040020085
:10094000EB087C483C339B001A502800019B9847D9
:1009500024090135002C01D0BD42DCD3202FCFD19A
:1009600003B0F0BCBB46B246A946A046F0BD704BF2
:1009700000200F229B46C6083300414608339B00E7
:100980005B5801000830002B00D1B2E017001F4077
:10099000BC461A420FD04C465D460F002C59203FF2
:1009A000CC40FF1727400124274204D16446614F01
:1009B0003C36B600F4511E0900D19AE017003740CA
:1009C000324213D04C1CA4465D464C462C59654619
:1009D0000E00EC401F3EF61726400124264205D1AA
:1009E000EE08544C3C363F01B60037511E0A00D188
:1009F0007FE017003740324213D08C1CA4465D467E
:100A00004C462C5965460E00EC401E3EF61726401B
:100A10000124264205D1EE08464C3C363F02B60082
:100A200037511E0B65D01700374032420DD0CC1C19
:100A3000A4465D464C462C5965460E00EC401D3ED2
:100A4000F61726400124264257D01E0C51D0140020
:100A50003440A44632420BD04C46354E0F1D365919
:100A6000FE40B2460E0054461C3EF60F26424BD0C6
:100A70001E0D3ED014003440A44632420BD04C46EA
:100A80002B4E4F1D3659FE40B2460E0054461B3EBB
:100A9000F60F264240D01E0E2BD014003440A44640
:100AA000324212D04C46224E8F1D3659FE40B2467D
:100AB0000E0054461A3EF60F264206D16446FE0842
:100AC0003C3627061B4CB60037511B0FCF1D002BA1
:100AD0000FD04C465D462E590124FE401939C917E6
:100AE0003140214205D1F908124E3C311B078900E3
:100AF0008B51202800D03EE732E7EE080D4C3C3603
:100B00003F03B6003751A0E76446FF083C37BE00FC
:100B1000084F2404F451ABE76446FE083C36270531
:100B2000044CB6003751B6E7B46B002030410140A9
:100B30006477002000400140094A83009A1810B5EC
:100B400014684022544080322240064CC000A44623
:100B500063441A60044B9C466044416010BDC0462B
:100B600004C0014004D0014000400140074B800018
:100B7000C3181B68C90092000A435A400C23134053
:100B8000034A9446604403607047C04604C0014075
:100B900004D00140D0231B061B6830B50500584225
:100BA00043412F205B4283430E48EC0884460720D4
:100BB00028408000814020000B4D3C306344800081
:100BC000A40041511B19002A05D0802292019446AD
:100BD0006344196030BDC022920194466344196099
:100BE000F8E7C0463041014000400140F8B54546B5
:100BF0009846D0231B06DE461C689B462B4B574667
:100C00009A46A3004E469946E0B5534616004A461A
:100C10009B5807000D00002B34D04346002B3FD0DB
:100C200053464A4641469950D0231B061C686342EE
:100C30005C412F220720634293431D4A384094466B
:100C4000FA081100800085403C311A48634489004D
:100C500092000D509B18002E0ED0802292019446D7
:100C6000634401210D201D6000F026F9F0BCBB4655
:100C7000B246A946A046F8BDC022920194466344FC
:100C80001D60F3E74346002BD1D0534641460D206B
:100C900099500022084900F071F95B461C68C6E7CC
:100CA0000D20054900F064FABAE7C046B46B002095
:100CB0003041014000400140C50800100123D0220E
:100CC0008340120693629361094A83009A1811685F
:100CD0004022514080320A400649C0008C4663449D
:100CE0001A60054B9C460523604443607047C0462C
:100CF00004C0014004D00140004001408023DB05D6
:100D00001868000F7047C0460FB400B5084883B09C
:100D100004F0BCF8049B002B07D005A91800019132
:100D200003F0F2FE034804F0B1F8012003F004FFE1
:100D3000CC9E0110DC9E011010B50148FFF7E4FFC6
:100D4000E09E011070B5EFF3108C72B60D4D2B685C
:100D5000002BFCD0BFF35F8F0724CB08C618C05C04
:100D600001230C40A3401C000440034207D1184358
:100D70003070BFF35F8F2C608CF3108870BD100053
:100D8000FFF7C2FF2C0100D0F8B54746CE46884693
:100D900080B5EFF3108C72B6214D2C68002CFCD07E
:100DA000BFF35F8F9A422CD8D4080727055D061938
:100DB00001241740BC402C421FD00721012789463F
:100DC00009E0D408055D06194C4639001440A140DD
:100DD0000C00294211D001329342F2D2012040424C
:100DE000BFF35F8F00220E4B1A608CF3108800282F
:100DF0000FDBC0BCB946B046F8BD254310003570C6
:100E0000EEE7BFF35F8F00232B608CF31088012087
:100E100040424346002BECD00898FFF775FFC046D0
:100E20002C0100D0044A1078431CDBB2172B00D9E8
:100E3000102313707047C046A50F002010B5034B58
:100E400001001800024AFFF77DFF10BDC46B0020AF
:100E5000F09E011010B5064B064C82B001000093C5
:100E600018221F232000FFF78FFF02B010BDC046DD
:100E7000109F0110C46B00200021044B044ABFF3F3
:100E80005F8F02C39342FAD17047C046000100D081
:100E9000800100D0054B064A1360064A1360536078
:100EA0009360D36013615361936170478080808049
:100EB00000E400E004E400E01F2318401E3B8340F0
:100EC000002905D0C021044A4900535013607047DF
:100ED000802201498B50FAE700E100E001228240C4
:100EE000034B1B6813405A1E9341D8B27047C0464B
:100EF00000E100E001238340014A13607047C046CF
:100F000000E200E0064B10309B688000C358054AA1
:100F100000209B1A2F229A424041C0B27047C0461F
:100F200000ED00E0A80F002070B50D00EFF3108673
:100F300072B60F4A1368002BFCD0BFF35F8F0D4BC6
:100F400010309B6884001B590B4A934203D09D428A
:100F500001D001F029F9074B9B681D51BFF35F8F4A
:100F6000BFF35F8F0022024B1A6086F3108870BDBA
:100F7000240100D000ED00E0CD010010F0B557468F
:100F80004E46DE464546E0B585B0060000911700A6
:100F9000EFF3108B72B66A4A1368002BFCD0BFF3D4
:100FA0005F8F0025674B5D579A46002D00DAA9E058
:100FB0006B00654C01935B199B009846A146C144A8
:100FC0004B4652469B7910361370604BB6009B68B7
:100FD00099590B1B2F2B33D95D4B994200D0ACE0B4
:100FE000019B42469C465B4B6544AD0063535A4BA4
:100FF0000232A218043B9B1A1B05584A5B0D651967
:1010000013436B80564B0121AB80FF23AB71009BD8
:10101000EF71AB604B460B4319004C4B9B689951E9
:10102000BFF35F8FBFF35F8F0022454B1A608BF3D6
:10103000108805B0F0BCBB46B246A946A046F0BD3C
:1010400001200A008243D3798C46BB4231D8454601
:10105000130044491B1B5B415943090D3D4B63532E
:101060003D4B02356519043B5B1B1B053B4D5B0D7E
:101070002B43AA464D466B800425AC465546E044BA
:10108000131F44441B1B1B055B0D1D434B469971ED
:1010900000999D8099604946DF71334B014313608D
:1010A000BBE75800C01880002018C179B9422FD979
:1010B00002000623D356002BF3DA02932B4B614632
:1010C0000393131D9A4604235B429C46E144504619
:1010D0004B461B1A1B055B0D9C46204B9571984691
:1010E0006346404603439380019B5A199200039B39
:1010F000A418A380029B1C4AA371009B2260E77185
:10110000A3608AE701F050F8002553465D574FE78A
:10111000908802934005131D9A46031561469C462C
:101120004046D444634604302018181AE0230005D2
:10113000400D1B0218430390C5E701F035F84FE757
:10114000240100D0819C0220A80F002000ED00E0C7
:10115000CD01001000A1FFFFD80F002000E0FFFF2D
:1011600001BDFFFFAAAA00000148804701BD0000A1
:10117000F0B5DE4657464E464546E0B50C0083B016
:10118000EFF3108872B6634A1368002BFCD0BFF3EC
:101190005F8F614B61499A68030010339F00D559F6
:1011A00000938D4243D0A54254D05D4EAA1B2F2AF6
:1011B0003DD85C4B9C461B689A4601231A00994611
:1011C0008240534613401F2201934B4602409340F6
:1011D0009A468022634650469850BFF35F8FEFF3E4
:1011E00005839B46002B37D0009B5B4501D000F068
:1011F000DBFF2A004B469A439068844208D177E08F
:101200004B005B189B00F3189868844236D01A0094
:10121000062151560029F3DA844255D0019B002B58
:1012200027D0C02251463F4B5200995019603A4B8B
:101230009B68DD51BFF35F8FBFF35F8F0022354B9B
:101240001A6088F3108803B0F0BCBB46B246A946CA
:10125000A046F0BD0D00EAE72A004B469A4390688D
:101260008442D5D106201056130000280ADA0D005A
:1012700032E0802351462B4AD150D8E70620185639
:10128000002822DB42001118890074188946A168E1
:101290009960E179D971062161569971002925DBA0
:1012A000A488F11A640524154C440919E0240905A1
:1012B000490D24022143998013181B4A9B00117881
:1012C000F31899711070A9E713005946002914D139
:1012D000FF3191711549918013490A789A71144A26
:1012E0009B1B5B415A43120D0A7097E71149E2E7D5
:1012F0000620105613000028C4DA0F4A0F49D21AEC
:10130000083A5002400D014399800D4952080A43A2
:10131000DA8083E7240100D000ED00E0CD01001069
:10132000A80F002000E100E0819C022001BDFFFF2A
:10133000AAAA000001BD0000E20F002000F0FFFF9C
:1013400000F8FFFF10B58308040003202040FF24AD
:10135000054AC0009446844081409B0063441A685B
:10136000A2430A431A6010BD00E400E070B50124F6
:101370000443EFF30581EFF3108C72B6214A136832
:10138000002BFCD0BFF35F8F1F4B05001F4AED1AE7
:101390006D416A43120D1E4D8900AE6852B27658F7
:1013A000A6421CD00621595691421CD012215956F2
:1013B000914222D01E215956914220D02A215956BD
:1013C0000324914210D0134B19781A708171BFF326
:1013D0005F8F00220B4B1A608CF3108870BDAB68D6
:1013E0000D4C5C50EFE700246100091989005B187F
:1013F000FF21997109499980E5E70124F4E7022466
:10140000F2E7C046240100D0A80F0020AAAA0000DD
:1014100000ED00E0819C0220CD01001001BDFFFF26
:1014200010B5084B084C82B0010000930022052340
:101430002000FFF7A9FC002801DB1F23181A02B0C7
:1014400010BDC0462C9F0110859C0220024B9C467B
:10145000614489000160704740000034F8B5124CC7
:10146000124DAC4212D20126002776422368002B8F
:101470000DD0FFF7D7FC01002000FFF7E7FF666003
:101480002772BFF35F8F0C34AC42EFD3F8BDFFF788
:10149000C9FC01002000FFF7D9FF6660BFF35F8F32
:1014A0000834AC42E2D3F1E7FC1700200C1800200E
:1014B00010B50400FFF7B6FC01002000FFF7C6FFDF
:1014C00001235B426360BFF35F8F10BD10B5040062
:1014D0000120FFF7BFFC034BC3189B002360BFF341
:1014E0005F8F10BD40000034034B9C46614489006F
:1014F0000160BFF35F8F704740000034F0B5DE46F7
:1015000057464E464546E0B583B0EFF305820323C8
:101510001340B54A990052580091904601229A40D2
:101520009346B24B1A60B24B01935B46B14843639A
:10153000434608229B5E9946002B3ADA43469B8835
:101540001BB2002B00DB9DE043469B79002B00D0B3
:10155000E1E0434608241C5F002C20DB43465A6927
:1015600063001B19DB00D3189D68DC686B1C00D17D
:1015700003E1A048009984466144826A0B69AE1A6F
:101580009B1A9E4213D35A46036A1A420FD09948B7
:1015900000F0BCFB8C4202DCC7D18542C5D940BFFC
:1015A00003B0F0BCBB46B246A946A046F0BD0D61F3
:1015B000EDE7424652695B0092464B44DB009A4499
:1015C00053469E68DF6800F0A1FB8F42B6DC00D175
:1015D000F8E0002F00DAD9E05246534654691B69FF
:1015E000019A934200D1CCE0414652460820085E61
:1015F0005288000421001043984704000D00230086
:101600002B4300D1C2E0002D00DBDFE030003900C9
:10161000001BA94153469860D96000229A5E002AB7
:1016200000DA8BE743465D6953009C18E4002C19EF
:10163000A768E4688C4200DD80E702D1874200D9C8
:101640007CE74646328108360DE08C4200D1C6E088
:101650001E000023F25E002A0ADB53009C18E400FF
:101660002C19A768E4689B18DB00EB188C42ECDDB2
:1016700053461A804B46338043469B881BB2002B4F
:1016800000DA61E743461A69EFF3108172B6136816
:10169000002BFCD0BFF35F8F43469E880123424658
:1016A0005B42938036B21369BFF35F8F00221A60EA
:1016B00081F31088002E00DA46E743465D6908335F
:1016C00042469C467700BF19FF00EF19BB68604691
:1016D00098460823D15E9246FC68002907DA0EE09E
:1016E000A24246D018000023C15E002906DB4B0051
:1016F0005B18DB00EB18DA68A242F1DD5246068087
:101700000023FE5E3980002EDCDA904643469B794A
:10171000002B00D11DE70023424693714346464605
:101720000821595E08364B1C00D138E747468946E8
:10173000556902E006004B1C18D04B005B18DB001B
:10174000E8180A008C46E95E43881BB2002BF1DAE8
:1017500001235B42DC178360C4604A4503D03180BB
:101760003B8903803A81E1464B1CE6D1B8464C46A2
:10177000F2E69A684245B5D9C0E7631C00D0F8E6A6
:1017800005E7200023699847002825D153464246A3
:101790001B8813811269EFF3108372B61168002958
:1017A000FCD0BFF35F8F4246514652880A804246C2
:1017B000494651801269BFF35F8F0021116083F3A6
:1017C0001088BBE6864200D803E7B7E6094800F078
:1017D0009DFA001969411DE7656824680FE7874293
:1017E00000D835E744E7C046A47400203C700540AB
:1017F000FD14001000400540074810B50268EFF3E3
:10180000108172B61368002BFCD0BFF35F8F06F017
:101810004DF90020002110BDC477002070B52E4C7A
:101820002569002D04D00A212C48FFF70FFE70BD5A
:101830002B4E0321300000F05FFAE660FFF7F2FA6A
:10184000284B03229C46D02322701B061B680121D3
:101850006370254B6044A3600F2380002061022049
:10186000638063694942A18019800231198647313A
:101870001D83585218315A5275325C3999521832B8
:10188000013199521832013199521832013199526D
:10189000083518329D5202311832995218320131EE
:1018A0009952183201319952183201319952183235
:1018B000013199521832013199520C4B0C49DC60BC
:1018C00001303562FFF730FB01210320FFF7F4FA06
:1018D000084B1D60A7E7C046F00F0020C47700202A
:1018E0000040054040000034FFFF1000A4740020B9
:1018F000FD1400103860054000487047F00F0020CC
:10190000F8B51F0008AB1B7804001600002B08D1A7
:1019100000F004FA32003B00121A8B41002B00DA6F
:1019200053E02269EFF3108072B61368002BFCD0ED
:10193000BFF35F8F0223E15E63694A005218D20051
:101940009B18002937DB1A8862802269BFF35F8FFA
:101950000025156080F31088069A9E60DF601A618A
:10196000079A5A615A8801325204520C101C002AFC
:101970001FD082B25880080410432669EFF3108705
:1019800072B63268002AFCD0BFF35F8FA2881A803B
:10199000A1802369BFF35F8F00221A6087F310884C
:1019A0000B4923788C4601329A40E36863441A60FD
:1019B000F8BD0120DDE72369BFF35F8F00221A60C5
:1019C00080F3108801204042F2E70020F0E7C04693
:1019D0003C20000070B501000469EFF3108C72B672
:1019E00020680028FCD0BFF35F8F02200D5E4C6999
:1019F00068004019C0002418002D37DB208848807B
:101A00000869BFF35F8F002606608CF31088E360DF
:101A100063880498013320615B0405985B0CA26025
:101A200060611A1C002B1FD093B2280462801843F7
:101A30000A69EFF3108C72B61368002BFCD0BFF369
:101A40005F8F8B8823808D800B69BFF35F8F0022AF
:101A50001A608CF310880B7801329A40CB680849E1
:101A60008C4663441A6070BD0122DDE70B69BFF349
:101A70005F8F00221A608CF3108801204042F2E749
:101A80003C20000010B543890A1493421ADD53002C
:101A90009B184269DB00D3180469EFF3108C72B60F
:101AA0002268002AFCD0BFF35F8F5A88090494B2E1
:101AB000090C8A4208D00369BFF35F8F00221A60C5
:101AC0008CF31088002010BD8022120214435C8029
:101AD000012302698371BFF35F8F002111608CF3D2
:101AE0001088044902788C469340C2680120624401
:101AF0001360E8E73C20000040787047F0B54746A7
:101B0000CE46040080B50D0096267642F7173619AA
:101B10006F4183B08F4215D812D000F0FFF8320029
:101B20003B00121A8B41002B16DC002B40D020000A
:101B3000290000F031F903B0C0BCB946B046F0BD91
:101B40008642EAD90026002700F0E8F832003B0080
:101B5000121A8B41002BE8DD00F0E0F832003B0068
:101B6000121A8B41002B0ADB00230193124B320027
:101B7000009312483B00FFF72DFF0028D7DBB84643
:101B8000B1460F4F0F4E7B6A984504D8BA6A91450B
:101B9000CDD99845CBD13268EFF3108172B6136876
:101BA000002BFCD0BFF35F8F300005F04DFFEAE75C
:101BB000002ABCD0D0E7C046F9170010F00F002073
:101BC00000400540C477002070B5060000F0A6F87C
:101BD000FA2204000D00002330000021920001F0E1
:101BE00019FA8023001969411B06994202D301208A
:101BF00002494042FFF782FF70BDC046FFFFFF7FF2
:101C0000F0B5D6464F464646C0B504000D0082B03A
:101C1000EFF305878946002F0ED0344900204B6A28
:101C2000AB4203D38A6A0130A24226D302B0E0BCA1
:101C3000BA46B146A846F0BD2D4B9846DB689A4699
:101C4000434650461E7800F061F80B0051460200F2
:101C50000436B600715820008E1A2900801A994166
:101C60008F4211DC0ED020BF204A0020536A4B4522
:101C7000DCD3926A0130A242D8D25B1B5A1E934138
:101C8000D8B2D3E78642EED900F048F822002B0004
:101C9000121A8B41002B1ADB00230193154B2200F3
:101CA000009340462B00FFF795FE011E0FDD0F4B02
:101CB0005A6A4A4517D39B6AA34212D34046FFF79C
:101CC000E1FE0A4A0020536A4B45AFD3D1E7074AE9
:101CD0000020536A4B45A9D3926A0120A242A5D2A3
:101CE000CBE74A45EAD120BFE8E7C04600400540BF
:101CF000F00F0020F917001010B5024A0248FFF754
:101D000021F810BD489F0110C86B00200300416AF4
:101D10000A00986A596A8A42FAD17047034B596A95
:101D20000A00986A596A9142FAD17047004005400A
:101D300070B504000D00174A536A1900966A536A79
:101D40008B42FAD13000190024184D41AB4216D80D
:101D500013D0104A2B00526A954203D90D494A6AA2
:101D60009A42FCD39A4207D10A4A02E0516A994248
:101D700002D1916AA142F9D370BDA642E9D9054BBF
:101D80005B6A1C005A1CEFD0012301246442E51752
:101D90005B42E3E700400540064A536A9942FCD89B
:101DA00007D1044B02E05A6A914202D19A6A8242F8
:101DB000F9D3704700400540F8B5DE464E46574619
:101DC0004546E0B58B4605000A991800160000F05C
:101DD00005FB0A9B6C001F02324B64199C46A40051
:101DE0006444636881469F4200D967602B1FDBB261
:101DF0009846012B30D9C02380229B01E3181201A1
:101E00001A60294BAD0059599A4600291BD173011C
:101E1000E026226853401E40802342465B01E318BF
:101E20001E60012A30D9802380229B01E318120111
:101E30001A6053464A4667605A51F0BCBB46B246E8
:101E4000A946A046F8BD586900F0C8FA0130430021
:101E50001B18033BFDD2DAE75B46012BCBD1C02335
:101E600003229B01E3181A60023AA3681A42FCD0CD
:101E70007301E0262268AD0053401E4080230A4AC9
:101E80005B019246E3181E605A46216851400322C6
:101E90000A401A6001225B469A40A3681A42FCD0AD
:101EA000C1E7C04600800040DC6B0020F0B546462C
:101EB0004F46D646C0B51F00344B44009C462418FC
:101EC000A4006444636888461600FF2B02D8802370
:101ED0005B006360031FDBB29A46012B30D9C0233D
:101EE00080229B01E31812011A60294B8500595981
:101EF000994600291BD17301E026226853401E40F9
:101F0000802352465B01E3181E60012A30D98023EA
:101F100080229B01E31812011A6080235B0063603A
:101F20004B465F51E0BCBA46B146A846F0BD586981
:101F300000F054FA013043001B18033BFDD2DAE7EE
:101F40004346012BCBD1C02303229B01E3181A6027
:101F5000023AA3681A42FCD07301E0262268850089
:101F600053401E4080230A4A5B019146E3181E60DD
:101F700042462168514003220A401A60012342462A
:101F80009340A2681342FCD0C1E7C04600800040E5
:101F9000DC6B0020014B8000C0587047DC6B0020D8
:101FA000F8B5040021481E0017000D0000F016FAD5
:101FB0000100380000F012FA069B36041B031E4392
:101FC0002368002B20DB1A4B1A49E3185A1E934151
:101FD0008022920194465B421B0B174A1B03634409
:101FE0001360164A13601F000A689743FBD1144B15
:101FF0002560E2182123A06013602368002BFCDA1F
:102000000823E6601360F8BD3F2322681340AB420B
:10201000D9D1A3681B051B0D8342D4D1EE22E368FE
:10202000D2021340B342CED1EDE7C046001BB70049
:102030000040FDBF08C0004000E0004000F000404C
:102040000430000010B580241C4BE4051C600028FF
:102050001AD001231A4C18431A4BDC611A4C444025
:102060001C62596298628021144BC9051960174897
:1020700017490860E021C9041960002A07D18022AD
:10208000144B12061A6010BD0E4BD861EBE75301DA
:102090009B1A9B009A18802312015B049A4209D272
:1020A00013000D490B60074B5A608022094BD20583
:1020B0001A60E8E7094B1A00F3E7C04600B0054094
:1020C000D3C007B0008005402D3FF84FFCFF010052
:1020D0000820014000A005407C740020FFFFFF00A5
:1020E0008023024A9B000B43D36270470080054067
:1020F000142310B50100188804331B88984710BDBD
:10210000162310B50100188802331B88984710BDAC
:10211000F8B54746CE4680B50F1E19D01423994610
:10212000043304000025012698464B461888434690
:1021300021681B88984701C4431E984101354042DD
:102140000640AF42F1D13000C0BCB946B046F8BD40
:102150000126F8E7142370B50400188804331B889F
:102160000D000549984703000020002C01DB0130D9
:10217000A04029009847C04655420000AA23064ABD
:102180001B0113608D235B00D3600449044B19606D
:102190005368002BFCDA70470040024000B0FA00A0
:1021A000006002407047C04610B50148FEF7ACFD24
:1021B0006C9F011070B5074D074EB54209D200243F
:1021C000013E761BB60808CD984723000134B34280
:1021D000F9D170BDB09D0110EC9D011070B5074D97
:1021E000074EB54209D20024013E761BB60808CD41
:1021F000984723000134B342F9D170BDE49D01102A
:10220000EC9D0110054B064A06491A60064A074B29
:102210001A6010000B689843FBD1704700E0004043
:10222000BFCDFBFE08C00040FE7F3C0000F0004038
:10223000044BDB6C002B03D18022034BD2021A60CB
:102240007047C046000011504C201150044A054B05
:102250001A60054A1368DB018033FBD17047C04622
:10226000FFFFFF0100F0004008C000404022034B88
:102270009A675A671A67DA667047C04600F00140ED
:1022800010B5FEF7F9FD10BD70B5044D044CA968FA
:10229000C022200001F02EF8AC6070BD00ED00E01F
:1022A00000000020002310B5294C82B0A367FFF77F
:1022B00065FF0122274B1A60636C012BFCD10322BE
:1022C000254B1A60224A936B012BFCD101330093FA
:1022D0000121224A22480433FFF762FE052301212F
:1022E0000093204A2048FFF75BFE002202210420D1
:1022F0001E4BFFF7DBFD0022012105201C4BFFF7E1
:10230000D5FD0022002107201A4BFFF7CFFD002248
:1023100000210820174BFFF7C9FD8023DB00009345
:10232000002200210920134BFFF746FD0022104B2D
:1023300000210620FFF7BAFD0420FFF72BFE0E490F
:1023400000F04CF801000020FFF7CAFE02B010BDFB
:10235000008000403CB0004030B00040002F685981
:1023600000800240008C864700C00240001BB7007E
:1023700040597307006CDC0240420F000148042101
:10238000014B18471010002011210010124A936FC2
:102390009B0815D29066D166002905D0FFE7FFE7BC
:1023A000FFE7516F106F704704B580210906C2170F
:1023B0005140002800D0C84317F0AAFC002104BDFA
:1023C000F0B5146E556E576F166FFFF7E3FF146686
:1023D000556657671667F0BD000000D0114A936F2D
:1023E0009B0813D210665166002905D0FFE7FFE76E
:1023F000FFE7516F106F704704B5002801D000202F
:10240000C04317F085FC002104BDC046F0B5146E32
:10241000556E576F166FFFF7E5FF146655665767E1
:102420001667F0BD000000D094464A4A926F9208A9
:10243000624601D228E0C046F0B5464E346E756E55
:10244000776F366F00F020F89446424A146655665E
:10245000576716676246F0BD94463E4A926F9208EF
:10246000624601D254E0C046F0B53A4E346E756E05
:10247000776F366F00F04CF89446364A146655660E
:10248000576716676246F0BD002B24DB11D0002988
:102490003EDA00B5C943404200D1013100F038F8BE
:1024A000C943404200D10131DB43524200D10133E4
:1024B00000BD002AEBD1002801D1002905D0002061
:1024C000C90FC90701D1C043410800B517F018FC76
:1024D0000022002300BD00B500290ADBDB43524285
:1024E00000D1013300F014F8C943404200D101315A
:1024F00000BDC943404200D10131DB43524200D10B
:10250000013300F005F8DB43524200D1013300BD36
:10251000002923D1002B18D1002A0CD0BC460D4F26
:1025200038667A6600210023FFE7FFE7FFE77A6F4E
:10253000386F67467047002801D00748010000B592
:1025400017F0DEFB0022002300BD02000B0000207C
:1025500000217047000000D0FFFFFFFF002B00D0DC
:10256000BFE0130C28D1002AE7D080B4114F3966A0
:102570007A66FFE7FFE730B4040C7B6F396F1B040A
:1025800023433B667A66FFE7FFE7FFE7C04684B276
:102590007B6F3D6F1B0423433B667A66FFE7FFE7D3
:1025A000C04600232C042D0C7A6F386F0019694146
:1025B000B0BC7047000000D0F0B594460025140E62
:1025C00001D112020835140F01D112010435940F04
:1025D00001D192000235D40F01D152000135D40B44
:1025E0000134254F7C66254C3C660E0C93B2FFE708
:1025F000FFE7FFE73C6F6643360C7703BE46734345
:10260000DF0B5B04C01AB941130C7343DB18C91A02
:10261000CE086643360CB64493B273431F0F1B01BA
:10262000C01AB941130C73431F0B1B05C01AB941E3
:10263000860D8F023E436643360C092D24DB520A79
:102640007243801A7703460A6643360C16235B1BD7
:10265000DE40DF40BF1964466643821B7046043586
:1026600006330100D940A840C01900D30131A2426D
:1026700006D20023F0BD0000000000D0FFFFFFFFE6
:10268000121B0130F3D3F1E709277F1BFE4064469C
:10269000A2B27243801A00D20139220C7243130C89
:1026A0001204821A99410B00704604351337010059
:1026B000F940A840801900D30131002B02D1A24279
:1026C0000AD2F0BD013000D30131121BFAD2013B16
:1026D000F8D1A24200D2F0BD013000D30131121B6B
:1026E000F7E7F0B51C0C00D080E00CB400251C0A04
:1026F00004D11B02160E3343120208351C0B04D101
:102700001B01160F3343120104359C0B04D19B00AF
:10271000960F334392000235DC0B02D192185B41D5
:1027200001351C00971864410134464F7C66464CC5
:102730003C660E0CFFE7FFE7FFE7C0463C6F6643D1
:10274000360C7703BE4697B27743C01B00D20139DF
:10275000C01B00D201399FB27743C91BC91B170C9C
:1027600077437E04FF0B801BB941CE086643360CCD
:102770000C2D33DBB644120B1F053A431B0B97B2EB
:102780007743C01B00D201399FB27743C91B170C96
:1027900077433E043F0C801BB941860D8F023E43B8
:1027A000664329277F1BFE400C3D7746AF40BF198B
:1027B00030BCA2B2ABB272437343801A9941220C6F
:1027C0007243130C1204801A994102000B00013766
:1027D000001BA941F9D2781E0021F0BD0C277F1BF8
:1027E000FE4077467F0BAF40FF19E0E700245D1CF9
:1027F00007D0144F7D663966FFE7FFE7FFE7FFE785
:102800003C6F95B29EB265436643401BB141150CC7
:102810001E0C6543664336042F0C3E432D04401BBB
:10282000B141994204D202000B0020000021F0BD0A
:1028300001D19042F7D3801A994101349942F2D3E1
:10284000F6E70000000000D0FFFFFFFF48404140D6
:10285000484018B41B4B5B68FC46019308BD04DF7D
:10286000E72A001018B4174B1B68FC46019308BDFB
:1028700000DFF12A00109446134A926F920809D2A1
:10288000624618B40F4BDB68FC46019308BD0CDFB1
:10289000A92D00100C4AF0B5146E556E576F166FC7
:1028A0006246FFF7EEFF084A1466556657671667DB
:1028B000F0BD18B4034B9B68FC46019308BD08DFCC
:1028C0004D2C0010885F0020000000D0FFB5504064
:1028D0004240504059404B40594000E0FFB5154F31
:1028E0004C00640D03D0BC4204D10C0314D800206A
:1028F000090D09055C00640D03D0BC4204D11C0322
:102900000AD800221B0D1B0501264B4009D44B4061
:1029100003D58B4200D18242FFBD9942FCD1904247
:10292000FFBD0B43DB1803431343F5D0C9434918DC
:10293000FFBD0000FF07000000B5FFF7CFFF80419B
:1029400000BDC04600B5FFF7C1FF01D9002000BDA2
:10295000012000BD00B5FFF7B9FF804100BD012097
:1029600040054A00121804D85A00121801D8002055
:1029700070470120704700000021002805D17047F2
:10298000C1174840401AFAD0C90713B5064B1B6857
:1029900098470CBC441CA2401005120B0349091BAC
:1029A00009051943114310BDC07700201F04000022
:1029B00010B54C00620D8023D218DB00D21A5B05E3
:1029C0007E2A10DD9E3A13DACC1709034908194311
:1029D0005242D140640001341532202A05DAD04039
:1029E0000843604310BD002010BD0846604310BD81
:1029F000C80FC018013810BD18B4044B5B6AFC4600
:102A0000019308BD24DF592F00100000885F0020CB
:102A1000132370B51D78012D19D014DD1F48FFF761
:102A20006FFB06001E48FFF76BFB1E4C8022310037
:102A3000200000F05FFC022D2DD01B48FFF758FB53
:102A40001A4B186070BD1A4B164CA364F5E7184B6F
:102A5000144C23606360A360E36023616361A3613E
:102A6000E36123626362A362E36223636363A3633C
:102A7000E36323646364A364E36423656365A3651C
:102A8000E36523666366A366E36623676367A367FC
:102A9000E367A364D1E7064BA364CEE75344000089
:102AA00053460000885F00204C330000C0770020B0
:102AB000B52A001007B5604601880A0A0230DF2AED
:102AC000FAD1C9B2820804D30288408800041043B6
:102AD00000E00068014A5050039007BD885F002065
:102AE0000FB403BC0CBCF0B50124E407634000E064
:102AF000F0B50C0DCF0F661E3605891B640503D398
:102B0000C943404200D30131640D03D0661CF60A6C
:102B100007D0E41B00207F00791C89078912803CC4
:102B200024031D0DDF0F6E1E36059B1B6D0503D3A1
:102B3000DB43524200D301336D0D03D06E1CF60A05
:102B400007D0ED1B00227F007B1C9B079B12803D62
:102B50002D032F1B661B58D4A446202E46DA20379F
:102B60001400BC401D00BD40F24033412A43801890
:102B70005941CB0F05D0C943C043002264425041A4
:102B8000514162464D0D28D10D0D07D100281FD0AF
:102B9000241940414941013A0D0DF9D0640006D392
:102BA000013000D30131002C01D140084000013A2E
:102BB0000BD4941CE40A04D112051144DB07194418
:102BC000F0BDD907204B194300E0D9070020F0BD24
:102BD0000029DDD1002CDBD1F0BD0132C607400851
:102BE000CD0728434908002EE1D0D9E73C2E29DA49
:102BF000203E40371400BC4000D00124F240144372
:102C00001A00BB401C43D317ACE7AC46202F08DAB0
:102C100020360400B4400D00B540F8403941284347
:102C2000A5E73C2F0CDA203F40360400B44000D02A
:102C30000124F84004430800B1400C43C117EAE7FF
:102C400010001900002494E70000F07FF0B50C0D8F
:102C5000661E3605891BE60A6405640D02D0651CF4
:102C6000ED0A04D0002001210905803C2403A4467C
:102C70001C0D671E3F05DB1BE70A6405640D02D0CF
:102C8000651CED0A04D0002201231B05803C2403AF
:102C90007740644497B484B296B27443070C7E4381
:102CA000150C6F4380B26843361802D3012000042C
:102CB0003F183004350C00197D41844688B29AB221
:102CC00050430C0C62431F0C7C438EB27E4392191E
:102CD00002D301263604A4191604170C36186741CE
:102CE00001BC81B29AB25143040C62431B0C5C4399
:102CF00080B25843121802D3012000042418100493
:102D0000130C401863412D185E410020474106BC5A
:102D100088B293B258430C0C6343120C544389B2EB
:102D200051435B1802D301210904641819041A0CD9
:102D3000091862416D1856410020474118BCF9023C
:102D4000720D1143F0026A0D1043ED020A0D03D11A
:102D50006D1940414941013B124E9B1B7600B34225
:102D60000ED26D0007D3013000267141664635430F
:102D700001D1400840001B05C918E4072144F0BDFB
:102D80000BDA013306D1013004D101314F0D01D0EE
:102D90004908F2E7E1070020F0BD013631050020C7
:102DA000EBE70000FF030000F0B51C0D671E3F05B8
:102DB000DB1BE70A6405640D02D0661CF60A04D02A
:102DC000002201231B05803C2403D0252D0600266C
:102DD000F6432E661E096E66CE0FF619B4464900FC
:102DE0004F0D02D07E1CF60A03D000200021403F88
:102DF0003F033E1BB600B444013F7F05C91B490891
:102E00002E6F013676089C02950D25437543ED1310
:102E10007543AD1301356D10F603761B0CB4CC026F
:102E2000450D2C43A2B2B3B25A43270C7B43350C59
:102E30006F43A4B26C431B1902D3012424043F192D
:102E40001C041D0CA4187D4124196D41009A91B2F7
:102E5000ACB26143170C7C432B0C5F4392B25A43D4
:102E6000A41802D301221204BF182204230C521802
:102E70007B41019C6C431B19520ED9010A4344014A
:102E8000A01A81B2B2B2514303145A43360C7343B1
:102E900087B27743D617D21900277E4136049B1993
:102EA0001704160C7F185E417316ED18F301002607
:102EB00080337541A90F06D16400690AE8055B0AF1
:102EC000184309D22FE00422944480337541A90AA3
:102ED000A8059B0A184326D3404149412404009A7F
:102EE000019B0D005543641B4343E41A95B286B21F
:102EF0007543170C7E43030C5F4392B25A43B618D6
:102F000002D301221204BF183204330C52197B4140
:102F100052429C41002C02D4002201305141400811
:102F2000CA071043490802B06246D7079210084BFF
:102F3000D218084B9A4203D212058918C919F0BD5C
:102F40000020002A01DC3900F0BD01331905F5E746
:102F5000FD030000FE070000002200B5203200F053
:102F600004F8080000BD000000220B150AD410B5BB
:102F7000944600F031F81414013400DA0021CB1724
:102F8000144C20470020002170476244343A0CD48E
:102F90000C2A07DA04009140904052422032D4407B
:102FA000214310BDD843D94310BD203207D40C466D
:102FB0009440524220321141D040204310BD0800BD
:102FC000C917203203D452422032104110BD1800DC
:102FD000190010BD8B2F00100A0DCC0F531E1B05BE
:102FE000C91A520503D3C943404200D30131520DDF
:102FF00003D0531CDB0A07D0121B00206400611CA5
:1030000089078912803A1203014BD21A70470000D7
:10301000FF03000051434343C9188C46110C83B28F
:103020004B4310B4040C614392B280B250436243EC
:103030001C041B0C001910BC59411304120CC018BD
:1030400051416144704700004840414048400E4BA8
:103050005B6818470C4B1B6818470C4A936F9B081A
:1030600002D2094BDB681847F0B5146E556E576FE6
:10307000166FFFF7F6FF054A146655665767166721
:10308000F0BD014B9B68184788600020000000D00D
:10309000491A002808D1084670470000C10FC90727
:1030A00000D54042002817D0F44603B40B4B1B68F0
:1030B000984706BC81409E384042803107D20B06BB
:1030C00007D04900490AC005104308436047013052
:1030D000F8E7490A8902F5E770470000C077002049
:1030E00041000A0E80231B067E2A0BDD9E3A0BDA76
:1030F000C1174002400818435242D04049000131F4
:103100004843704700207047C00FC018013870470F
:10311000C0420DD300B540004008002100F012F875
:10312000002801D4404200BD8020000600BD000000
:10313000034BDB69FC4618471CDFE131001000003F
:1031400088600020014B5B6A1847000088600020FF
:10315000132310B512481C78FEF7D2FF0100012C92
:103160000AD003DD80220F4800F0C4F80E48FEF7B5
:10317000BFFF0E4B186010BD0A4C5422200000F017
:10318000B9F80B4B6365A365E36523666366A366C5
:10319000E36623676367A367E3672362E361E5E7A9
:1031A00053460000886000204C330000C0770020A8
:1031B000B531001007B5604601880A0A0230DF2ADF
:1031C000FAD1C9B2820804D30288408800041043AF
:1031D00000E00068014A5050039007BD886000205D
:1031E0000021C2158032803201D0024A10470020EF
:1031F00070470000CD2A000070B504000A4E300070
:1032000016F0BEFD200016F089FA0500300016F019
:103210006FFD002D05D0054B2C199C4201D82800CC
:1032200070BD0348FDF770FDFC170020000004206E
:10323000789F0110F8B506000C000C4F380016F00E
:103240009FFD2100300015F0B5FD0500380016F097
:103250004FFD7443002D05D0054B2C199C4201D81D
:103260002800F8BD0348FDF74FFDC046FC170020BD
:1032700000000420789F011070B505000C000B4E73
:10328000300016F07DFD2800210015F0F9FD050045
:10329000300016F02DFD002D05D0054B2C199C4259
:1032A00001D8280070BD0348FDF72EFDFC17002053
:1032B00000000420789F011070B50400054D28001F
:1032C00016F05EFD200016F033FA280016F010FD0F
:1032D00070BDC046FC17002001480421014B18476F
:1032E0002010002011210010014B1B68184700001E
:1032F00020100020014B5B681847000020100020C0
:10330000EFF3108C72B6074B1A68002AFCD0BFF39B
:103310005F8F41680068BFF35F8F00221A608CF3F3
:1033200010887047340100D030B514001D00EFF351
:10333000108172B6074B1A68002AFCD0BFF35F8F6A
:1033400004604560BFF35F8F00221A6081F310882C
:1033500030BDC046340100D030B5010014001D005E
:10336000EFF3108C72B609480368002BFCD0BFF352
:103370005F8F0A684B680C604D60BFF35F8F002160
:1033800001608CF310881000190030BD340100D0AA
:103390009A4200D2885470477047C046F8B55746E5
:1033A000DE464E464546E0B599460A9B07009A46DA
:1033B0000D9B884693460B9C9B073BD10C9B9C42E4
:1033C0003DD21E1B0B9415000C005E442A004B4698
:1033D000013521002020B847B542F7D1A0460B9C0B
:1033E000002C20D0454636195346321B013C185D4F
:1033F00029004B46B847002CF6D12B0035009846E3
:103400000D9B9B070FD55B46EC1A0C9BA3420AD978
:10341000464698462A004B46310020200134B847E2
:1034200001354445F6D32800F0BCBB46B246A94658
:10343000A046F8BD16001500002CD3D1E0E7160019
:10344000002CCFD11500EEE7F0B54F464646D646E4
:10345000C0B584B098460EAB1B7894469946129B33
:103460000D9C109F119E9A0725D4002E65D1BC4259
:1034700021D201221A409246202C00D1E9E00C9A78
:10348000551E302202E0202C00D17BE001342A5569
:10349000A742F8D85246002A0DD0B4420BD20C9A5B
:1034A000551E3022202C02D171E0202C2DD0013469
:1034B0002A55B442F9D1DA063CD55A052ED4002C4F
:1034C00028D10F9A102A00D1B6E0022A00D1BCE020
:1034D00030220C9C227001244A46002A65D15A07EA
:1034E00000D499E02B220C9D2A55013403930C9BA8
:1034F00062460093029643460194FFF74FFF04B0E3
:10350000E0BCBA46B146A846F0BD2024DA06EDD5A7
:103510005A0503D4A74266D0B44264D00F9A102A49
:1035200071D0022A57D0202CE0D02200013430255F
:103530000C9FBD54202CD9D0CEE7012215001D4090
:10354000AA461A4236D04A46002A4AD10C321A42BA
:1035500047D1BC42A1D2202C91D1202E17D82024B3
:10356000DA06C3D55A051BD4202F01D0202ED5D181
:103570001F220F9D102D6FD0022DD8D162250C9FD8
:10358000BD54D0E75246002A79D0202EBDD9202440
:10359000DA06ABD55A0503D4202FE9D0202EE7D088
:1035A0000F9A102AA2D12024A0E72D220C9D2A5583
:1035B00001349BE7BC4200D37DE7202C00D05EE7BE
:1035C000DA06F0D55A05EED4202F62D0202EEAD1AB
:1035D00034001F22CDE7202C00D187E722000134E0
:1035E000CCE7013EB5E7621E012CC2D10F9A102A2A
:1035F00000D06AE79A063BD558220C9C2270283AE4
:103600006270022468E79A060ED4202CCBD0782270
:103610000C9D2A55013486E71A0700D466E720225C
:103620000C9D2A55013461E7202CBCD058250C9AFA
:1036300012191570013476E79A0608D558220C9CA9
:10364000227030226270022446E76032F7E7782267
:10365000F5E7002A83D1B3E7A21E013C9D0603D4FF
:1036600078250C9FBD5460E758250C9FBD545CE73E
:1036700078220C9C2270483A627002242CE7DA0609
:1036800000D433E75A058BD4202F00D044E71F2203
:103690006FE73C001F226CE710B5002800D110BD79
:1036A00001F0A8FBFBE7C0460B0010B5002802D0D4
:1036B00049681B68984710BDF0B557464E464546C9
:1036C000DE46E0B599B08246894690460893229A34
:1036D000239B10001900FFF742F9002800D0CDE02D
:1036E000229823990122D94B5242FFF733F900283F
:1036F00000D0C3E0229823990122D54B5242FFF714
:103700001BF9002800D0B9E0229823990022002359
:10371000FFF712F9002800D0F1E1229E239F8023B9
:10372000269ADB001A400D92269A1A4201D10623EE
:1037300024938023269A1B011A403B009346099646
:10374000334300D0B3E0002A00D0C2E100230024BC
:103750000A930B94002304250993259B0024AB4274
:1037600000D95C1B0223269A1A400C92269A134217
:1037700003D06B426B415B421C40099B002B07D07E
:103780000A9A0B9B30003900FFF775F806000F000E
:103790002298239900220023FFF7CEF8002803D0B7
:1037A000802109067B181F00269AAA4B00960197D4
:1037B0001340089E0493249B0394029342463300D3
:1037C0004946504600F0AAF90400002D67D0202099
:1037D000269A4946024013005A4253415B42621CFA
:1037E00018400A92330022004530D047099A6F1ED4
:1037F000D317D4185C40D30F9B46002501E0202D41
:1038000013D008AA94461F23200063440A210135DF
:103810005E19FEF7E3FD3031317020000A21FEF71A
:10382000DDFD26000400092EE9D8052306930023B8
:1038300004930A3303935B46089E029310AB0A9AE3
:10384000009349463300504605970195FFF7FCFD6C
:103850000C9A0400002A22D04246851A259AAA42D0
:103860001DD9B0465746160022004346494620203F
:103870000135B8470134AE42F6D810E0269B4246E7
:103880000493259B49460393249B50460293229B15
:10389000239C00930194089B00F040F90400200051
:1038A00019B0F0BCBB46B246A946A046F0BD6A4B73
:1038B00078009C46400D6044FFF762F8674A684B09
:1038C000FEF7F7FF674A684BFEF7CCFF674A3B03FA
:1038D0001B0B1A4304000D0009981100644B0022D1
:1038E000FEF7B7FF634A644BFEF7E3FF02000B00ED
:1038F00020002900FEF7B6FFFFF75AF80990FFF7FE
:103900003FF85E4A5E4B04000D00FEF7D2FF002236
:103910005C4BFEF7A7FFFFF74BF85B4A5B4B2900B8
:103920000C902000FEF7C5FF04000C980D00FFF777
:1039300027F8574A574BFEF7BCFF02000B00200048
:103940002900FEF786FF04000D0002000B000A9418
:103950000B95FEF7AEFF04000D000A980B990200CC
:103960000B00FEF77FFF00220E900F914A4B2000C4
:103970002900FEF780FF0022484BFEF773FF02008C
:103980000B0020002900FEF776FF0022444BFEF7D3
:1039900069FF02000B0020002900FEF76CFF0A9A65
:1039A0000B9B0D0080210400C9050020FEF751FF8C
:1039B00002000B0020002900FEF754FF02000B005C
:1039C0000E980F99FEF757FF0022284BFEF74AFF8B
:1039D000344B0C9C9C46644423050022FEF769FF8F
:1039E00004000D0002000B00300039000A940B9512
:1039F000FEF7A2FF00285DD123002A00C625099901
:103A000063318D42AD4159466D420435002900D1E4
:103A1000A3E6134363D030003900234A234BFEF75B
:103A200091FF002807D0002230003900204BFEF71C
:103A300083FF002853D1249B002B00D18DE60D9BE2
:103A40005A1E9341249AD31A249386E6FFFFEF7FF0
:103A5000FFFFEFFFFFF7FFFF01FCFFFFFB799F5028
:103A60001344D33FB3C8608B288AC63F0000F03FA1
:103A70000000F83F61436F63A787D23F71A37909C4
:103A80004F930A400000E03F1655B5BBB16B0240B2
:103A9000EF39FAFE422EE63F00002C4000002440A1
:103AA00000001840FF0300002D431CEBE2361A3FD4
:103AB00080842E41099B0022013B09932000164B74
:103AC0002900FEF7D8FE0A00010003000A910B92BC
:103AD00094E7002300240A930B9400230993249A6B
:103AE000099B9A4214DDD31A013B24938023269A22
:103AF000DB001A4300230025269209932DE680223D
:103B000012069446229B1E00239B63441F0006E678
:103B100000232493EAE7C04600002440F0B5454660
:103B2000DE464E465746E0B595B08B4690469946E0
:103B30001E9A1F9B0A9019001000209DFEF70FFF90
:103B4000002800D0B0E11E981F990122C74B5242B5
:103B5000FEF7F2FE002800D037E11E981F990122DF
:103B6000C34B5242FEF7F6FE002800D0A7E01E9895
:103B70001F990022BF4BFEF7EDFE002800D088E021
:103B80001E981F990022BC4BFEF7D6FE002800D0DD
:103B90007FE01E981F9900220023FEF7CDFE00282B
:103BA00000D0FAE000230B938023229C229ADB00B2
:103BB0001C401A4200D102E1092D00D87CE106A97F
:103BC0008C462C00172200233021093C624401332B
:103BD000D154EF1A202B00D132E1A342F7D10022B9
:103BE000A44B069207931E981F99FEF7E1FE05006D
:103BF000FEF7C6FE02000B001E981F99FEF729FE75
:103C0000069A079BFEF755FE08900991FEF7F4FE11
:103C10000600FEF7B1FE02000B0008980999FEF7B6
:103C200018FE0022954B08900991FEF793FE00289C
:103C300000D1D2E001363000FEF79EFE069A079BC7
:103C4000FEF780FE002801D000260135AA46002F8D
:103C500000D098E02800FEF793FE02000B001E98AB
:103C60001F99FEF7F6FD854B002206000F00FEF7B8
:103C700063FE0CAB9A46002845D100223000390083
:103C80007E4BFEF767FE00283DD1EB073BD50135A3
:103C900039E0229B42460493219B594603930A989C
:103CA0001E9B1F9C0295009301944B46FFF704FD59
:103CB00015B0F0BCBB46B246A946A046F0BD229B5B
:103CC0005B0767D403226E4B2299019203912199DD
:103CD0000291009342464B4659460A98FFF75EFB15
:103CE000E6E706AA94461723280063440A21013414
:103CF0001E19FEF74BFB3031280031700A21FEF708
:103D000045FB051E76D0202CEBD10323229A1340CD
:103D1000012B1DD1219B002B1AD00B9B002B00D017
:103D2000BBE0229A0C33134200D0B6E0219BA342A1
:103D300000D887E006AB9C4617223023624404E09B
:103D40002199013413558C4259D0202CF8D12024CC
:103D5000229B01940393219B02935346B9E706AA41
:103D6000944617230A216344300001341D19FEF7DD
:103D700035FB3031297030000A21013FFEF72EFB60
:103D8000092E46D90600202CE9D155460CAB20243B
:103D90009A46B8E704223B4B96E71E9A1F9B0020E9
:103DA0000021FEF756FD01230B938023229C229ACB
:103DB000DB001E901F911C401A4200D0FCE600223E
:103DC000314B0627069207930DE7229B0393219B15
:103DD0000293042301932D4B7BE700220898099955
:103DE000264BFEF7A9FD002800D02FE7002E4FD16B
:103DF00001362BE70323229A1340012B66D0202C97
:103E0000A6D00B9B002B1FD02D23524613550134F7
:103E10009EE75546202CB9D030233A19002F08D000
:103E2000172006A9013409180B55202CAED0944256
:103E3000F6D10CAB9A462E2352461355013462E755
:103E40002024CCE6202C83D0229B5B0708D4229B25
:103E50001B0700D47CE7202352461355013477E733
:103E60002B2352461355013472E7C046FFFFEFFF84
:103E7000FFFFEF7F65CDCD4165CDCDC10000E03FB7
:103E8000D49F0110CC9F011080842E41DC9F011033
:103E9000F30700D4DAE60136D8E6219B013B2193F3
:103EA000A34200D946E7AAE7229B0393219B0293F2
:103EB00003230193074B0CE7074BEA009B185C6850
:103EC0001B682F000693079400248CE6219B002B8F
:103ED00095D022E7D89F0110A8A90110F0B5574648
:103EE000DE464E464546E0B5A5B01F002E9B9146E6
:103EF0000D93CA4ACA4B82468B461A60002900D1EC
:103F000029E2002338789846002800D12BE2C54BDF
:103F100044460C93C44B55464E460E930AE0631C30
:103F20009846220033005946A8474446387800286E
:103F300000D187E001372528F1D108239A46043BB8
:103F40009946023B9846013B00229C460B943878E8
:103F5000791C0300203BDBB2102B03D80C9C9B0088
:103F6000E3589F460300303B0B9C0B92092B3AD938
:103F7000002398462A2800D1DDE000239A462E2807
:103F80004BD00300683BDBB2122B1ED80E9A9B006D
:103F9000D3589F4663460F001A43D8E743460F00A5
:103FA0001A43D4E74B460F001A43D0E710230F0003
:103FB0001A43CCE753460F001A43C8E780235B003F
:103FC0000B9A78781A430B9201310F0067284FD86B
:103FD0002428A4D90300253BDBB2422B9FD8934968
:103FE0009B00CB589F46002398460B9B47469C4618
:103FF00000E00131BB00DB195B001F180878303F7F
:104000000300303B092BF4D963460B930023B846D9
:104010009A460F0001312E28B3D180200B9AC000A0
:1040200002430B9230225242944678780B0084442B
:104030006246092A00D8AAE12A2800D1B9E10F0076
:1040400001319EE7A046AA46B146C84503D30123E5
:104050005B424B4498464B46424659460020D04767
:10406000200025B0F0BCBB46B246A946A046F0BD34
:1040700001006939C9B20F2900D950E701238B40EB
:104080009C466B4B994663464A4613400F936246E3
:104090004B461A4200D068E10A2956D0072900D0C1
:1040A0003DE70D9B02CB9846002900D092E10B9B87
:1040B00010211A008A4310001131084381468020E4
:1040C0001A00C0000240110003421CD114AB9C46F0
:1040D0001F220F2362440D959C4615000F9B0B94E5
:1040E00002E0202B0CD0110064460C402000373039
:1040F000092C00D807380133E8540A090F29F0D8F1
:104100000B9C0D9D0F934B46082206935346059238
:1041100008320392002204930F9B029201931CAB7E
:1041200022000093594633002800FFF78DF94346DB
:1041300004000D93FAE60D9B04CB9046002A79DB30
:1041400078780D930F00013117E70D9B02CB149384
:104150000B789C4618005346002B00D134E1002810
:1041600015D05346013B013399460D940B9C89446D
:104170004A460B00A14601E0934203D05C7801332C
:10418000002CF9D14A465B1A0D9C0B920F938023A9
:10419000DB0099460B9A13400D934B461A4204D00C
:1041A0000F9B534501D953460F93022399460B9A0F
:1041B00013400B934B46134200D1F5E16346002BAD
:1041C00000D1D6E10D9B002B00D182E10B1BD14623
:1041D00031009A463B00A1442E005F464D46220026
:1041E0009B46894609E04B463900541CB04753466C
:1041F000185D002800D192E122009542F3D14B4690
:104200005A46A946BB46350017001E004C460B9B7C
:10421000002B00D0ADE1149B0D9387E6DD3E00102E
:104220007074002008A801104CA8011098A8011073
:10423000419000000B9A283802430B9242465242AA
:10424000787890460F000D93013196E678786C28C7
:1042500000D15DE180230B9A5B001A430B92013180
:10426000B3E680239B00ABE67878682800D148E16C
:1042700080230B9A01311A430B92A6E6672800D1DE
:10428000B2E0472800D11AE1452800D11CE10B9A81
:104290000721049242460D9B0392073352468B43FB
:1042A000190002920CC92800009201930D9122007E
:1042B00033005946FFF700FA040037E6462800D1DC
:1042C0008DE00B9A0721049242460D9B039207331F
:1042D00052468B43190002920CC9280000920193A8
:1042E0000D91220033005946FFF718FC04001DE62B
:1042F000631C98462200330059462520A8474446AF
:1043000014E60D9B04330F93631C99460B9B9A078D
:1043100000D40AE10D9B2200187859463300A847C3
:1043200043464444012B00D86FE1B0462E002500DF
:104330004C46B9465F4622004346013439002020EE
:10434000B047AC42F7D12C00BB4635004F4646463D
:104350000F9B0D93EAE5D64B38789A460023984692
:10436000002800D0D3E500246FE66F2842D000D8A3
:10437000FDE11023782800D19BE00B9A9A430B9221
:104380000A239C46002314930A330F9338E05746C0
:104390000B9AB900C919490001330F181878303F3A
:1043A000010030390929F4D9BA460B921F00591C73
:1043B000E7E50D9BB87804CB0237D143C9170A4013
:1043C00092460D93791CDCE5002800D1DFE602233C
:1043D0005B42C8E621200B9A0243914676E62023F1
:1043E0000B9A1A430B926CE780230B9A1B011A431A
:1043F0000B924CE708239C460023149308330F9339
:104400000B9880230200DB001A40110002001842C2
:1044100000D080E00C239A431000802302009B0010
:104420001A400B92184200D0F1E0802302005B009A
:104430001A4091460D9A04321492184200D0C3E2F9
:10444000430600D5D7E0030600D421E30D9B1B886B
:104450000993002B00D02DE110339843002900D19F
:1044600028E10023994643460593534604930F9B46
:1044700006900393002302934B4601931CAB22004A
:104480000093594633002800FEF7DEFF0400C2E621
:10449000582809D0622800D0E3E202239C4600237A
:1044A000149302330F93ABE720230B9A1A430B921A
:1044B000103B9C460023149310330F93A0E78023F6
:1044C0000B9A1B011A430B9220230B9A1A430B924F
:1044D000DDE60B1B9A460F9B99463B0037005E4674
:1044E0009B4622003B003100A84753460134185D2B
:1044F0000028F6D14B460F935B46B3463E001F00A3
:1045000085E6C0230B9AB8781A430B92F91C5CE538
:10451000C0239B00F6E70D239A4310007DE75B461E
:104520003500BB464E461F0071E64346012B66D957
:10453000631E434432002E001D003B00A2465F462E
:1045400091469B4622004B46013439002020B0475B
:10455000AC42F7D15B463500BB464E46A1465446B9
:104560001F000D9B4A461878594633004444A8471B
:10457000EEE60F9BA146984500D84CE64444E41A69
:10458000B0462E0025004C46B9465F462200434601
:10459000013439002020B047AC42F7D12C00BB4693
:1045A00035004F46464636E60F98804500D873E200
:1045B0004346E218131A32002E001D003B009146BC
:1045C0005F469B460F9122004B4601343900202064
:1045D000B047AC42F7D15B46BB461F0043460F993C
:1045E00001330F930B7835009C464E4660460028F9
:1045F00000D0E7E50FE60D9B1B78099329E70D9B9B
:104600002200187859463300A8474C46A0E60D9A78
:10461000FA3BFF3B07329A430133994691444B469C
:104620000D931368526815921A4306D110329043C5
:1046300000220992002900D083E06122810600D582
:104640004122D2B20A9214AA91460A9A00210A3A49
:104650000B9242461792524618925A46B246099118
:104660001E001F31149B4944BB4616941A95002422
:10467000674698468946159D19901B920AE030328C
:10468000D2B24B4601341A55A8454CD0202C4CD000
:1046900006000D003A00002330002900FDF7DCFE83
:1046A000D2B2092AEBD90B9B9C466244D2B2E8E70E
:1046B000993300106123820600D54123DBB20A3B07
:1046C0000B93434614A91F228C461593534662440C
:1046D000B2460D9417974C468046A9461700099D8F
:1046E0000F9E169308E03033DBB201343B55B542E0
:1046F0000ED3202C0CD0050031002800FDF76EFEF3
:10470000CBB20929EFD90B9A94466344DBB2ECE7AC
:10471000159B40469846169B4D465646A1469A46DE
:104720000D9C179F9FE6B742B0D9179B56469846F7
:10473000189B5F469A461B9B09949B46169C1998AA
:104740001A9D43460593534604930F9B069003938B
:1047500000230293099B01931CAB2200009359464E
:1047600033002800FEF770FE0400FFF7DFFB102384
:104770000B9A9A430F92692800D091E10B998023FC
:104780000A00DB001A4010000A00194203D0112170
:1047900018008A430F920F9A802311009B00194042
:1047A0008C461A425BD1802311005B001940894678
:1047B0000D9904310B911A4200D0B2E013005B0650
:1047C00000D4EDE00D9B1B781A00D90F0D91002B42
:1047D00000D1A3E0100014AA944642461F2315926C
:1047E00052466344A846BA464D461494B146040066
:1047F0001F00169201E0202D0FD020000A21FDF7A6
:10480000EDFD01357E193031317020000A21FDF7B0
:10481000E5FD26000400092EEDD8159B4E46A9465D
:1048200045469846169B57469A46149C0F9B0693FE
:1048300043460593534604930A2303930D9B029327
:104840004B4601931CAB22000093594633002800CD
:10485000FEF7FAFD0B9B04000D93FFF767FB0722A1
:104860000D9B07339343013294469C4462460D925C
:104870000CCBD90F0B911100194300D19BE0D91734
:104880001391129151401091139959401191109820
:104890001199129A139B801A99411090119114AAA0
:1048A000944642460023159252469946169232008B
:1048B0001F336344A8464E46BA4614941F00109C0A
:1048C000119D914601E0202E10D0200029000A22DF
:1048D0000023FDF7C1FD013630322B00BA550D0023
:1048E00022000400002BEED1092AECD8159B10946D
:1048F0001195454698464B46169AB14657461E00B6
:104900009246149C0F9B069343460593534604938B
:104910000A2303930B9B02934B461CE7002885D187
:1049200059E70D9B1B68DA0F1100002B00D1A6E0A0
:10493000DA179818504014AA91461F2342464B4458
:10494000A8460D94169704006546B1461F001491C1
:10495000159201E0202D0FD020000A21FDF73EFD29
:1049600001357E193031317020000A21FDF736FD06
:1049700026000400092EEDD8159BAC464546984606
:10498000149B4E4619000D9C169F0F9B0291069397
:1049900043460593534604930A230393634650E723
:1049A00013001B066ED50D9B00229B5ED9175A186B
:1049B0004A4092B209E7002399460028A2D100227A
:1049C0000023109211936AE70D9B1B689946002BF8
:1049D00003D110339843002938D16123820600D5D2
:1049E0004123DBB20A3B0D9343461693534614A969
:1049F0001F228C4617932B0062444D46B2461594F5
:104A000018978046170099460B9C0F9E08E030339C
:104A1000DBB201343B55B5420ED3202C0CD005003F
:104A200031002800FDF7DAFCCBB20929EFD90D9A45
:104A300094466344DBB2ECE7169B40469846179BCE
:104A400056464D469A460B94189F159C434605932F
:104A5000534604930F9B06900393002302930B9BF2
:104A60000BE50B9980230A00DB001A4010000A00B6
:104A7000194200D08BE610239A430F928BE6002850
:104A800083D158E70D9B1B68D9175A184A409CE6FA
:104A90000D9B1B680993DCE4030001330F93A5E52C
:104AA0000B926DE40CB430B585B008AC08CC064D63
:104AB0000A000094010028000394FFF70FFA05B0E4
:104AC00030BC08BC02B018479133001010B5054C3B
:104AD00082B0009313000A0001002000FFF7FEF9E6
:104AE00002B010BD9133001000B585B003910121D3
:104AF00002900093034813004A4202A9FFF7EEF91F
:104B000005B000BDA936001010B5094A03001468AD
:104B100084B0002C08D0012200910648524203A91B
:104B2000A047012004B010BD00F0B0F90020F9E763
:104B3000707400209936001000BEFDE7094A03009A
:104B40001068002805D00849C3188B4207D81360A5
:104B5000704706480449C31810608B42F7D90120FA
:104B60004042F5E75870002000000420889C022095
:104B700010B5FFF7E1FFC04670B5FDF71BFB074D11
:104B8000074EB54209D20024013E761BB60808CD77
:104B9000984723000134B342F9D170BDEC9D011058
:104BA000009E0110030010B5080011001B68984713
:104BB00010BDC046F0B5C6460B6806000C0000B537
:104BC000802B06D05A1C2260E418267180BCB8469F
:104BD000F0BD0E4B1D68002D14D00B1D98460C4FD8
:104BE00002E02D69002D0DD02B68002BF9D03A681A
:104BF000002A01D0AA42F4D14046216898472D6985
:104C0000002DF1D101220023DDE7C046FC6F00201A
:104C100004700020030010B5080011001B689847BD
:104C200010BDC046F0B5DE4657464E464546E0B597
:104C300085B017001C0006000D00FDF76FF800237B
:104C4000314A12184B41802109068B4202D30122BE
:104C50002E4B52422E4908008A4615F079F80190F1
:104C60006B1C03D1300014F08FFF0500002C26D000
:104C7000284B9846284B1C68002C15D0002F21D1BA
:104C8000264F02E02469002C0ED02368002BF9D0B7
:104C90003B68002B01D09C42F4D120002A00310057
:104CA000C0472469002CF0D1019B002B28D128009B
:104CB00005B0F0BCBB46B246A946A046F0BD184BB5
:104CC0009846D7E7154B994602ABDF1D0A239B4652
:104CD00002E02469002CE7D02368002BF9D04B4672
:104CE0001B68002B01D0A342F3D12A003100200021
:104CF000C0475B460122390020003B70C047E8E70F
:104D0000504614F0F5FFD2E740420F00FFFFFF7F4F
:104D100004180020154C0010FC6F002004700020C7
:104D2000A54B00100A4A1368002B05D10CE01A00AD
:104D30001B691032002B07D09842F8D1002902D10C
:104D400003691360016170470029FCD01060FAE725
:104D5000FC6F002010B500F04DFB10BDF0B5CE4645
:104D60004746040080B583B0FCF7D8FF2600002733
:104D7000802336184F411B069F4202D30126194F4C
:104D80007642194BB9469846184D43461C68002C8C
:104D900003D116E02469002C13D02B68002B01D01E
:104DA0009C42F7D1A368002BF4D0012101A89847B9
:104DB0000028EFDD6B46187903B0C0BCB946B04699
:104DC000F0BD0B4B5A6A914507D89B6AB34202D398
:104DD00002204042F0E79145FAD101200021FCF782
:104DE000A7FFD2E7FFFFFF7FFC6F002004700020C9
:104DF00000400540F0B5CE46474680B583B06B46CF
:104E00000600DD1D2870FCF789FF00231A4A1218DE
:104E10004B41802109068B4202D30122174B52429B
:104E200017490800884614F093FF164B81461C680A
:104E3000002C14D0144F02E02469002C0FD02368FA
:104E4000002BF9D03B68002B01D09C42F4D120000C
:104E500001222900FFF7DEFE2469002CEFD14B462A
:104E6000002B05D1300003B0C0BCB946B046F0BD40
:104E7000404614F03DFFF5E740420F00FFFFFF7F83
:104E800004180020FC6F00200470002070B504009E
:104E900014F07AFE01230100050001222000FFF733
:104EA000C1FE084B1C68002C06D06368002B05D09F
:104EB00098472469002CF8D1280070BD2469002C83
:104EC000F3D1F9E7FC6F0020F0B5CE46474680B538
:104ED000A3B004000D00FCF721FF0023284A12189C
:104EE0004B41802109068B4202D30122254B5242BD
:104EF000254F380014F02CFF0023060001932200F8
:104F00002B00224801A9FFF7EFFD019B8046002BF3
:104F100014D11F4B1C68002C06D06368002B0BD0EB
:104F200098472469002CF8D1002E23D1404623B0A5
:104F3000C0BCB946B046F0BD2469ECE7144B1D680F
:104F40009946002D1AD0134C02E02D69002D0DD08A
:104F50002B68002BF9D02268002A01D0AA42F4D194
:104F6000019902A898472D69002DF1D14B46019572
:104F70001C68D0E7380014F0BBFED7E70195D3E7F3
:104F800040420F00FFFFFF7F04180020B54B0010C8
:104F9000FC6F0020047000200FB400B583B004A99A
:104FA00001C90191FFF790FF03B008BC04B0184796
:104FB0007047C0460022014B1A707047829C022045
:104FC0004B790020FF2B0BD18B79002B08D1CB79AB
:104FD000012B05D1082A03D9024B8A7809301A70AF
:104FE0007047C046829C02200120704710B50129FD
:104FF00001D0012010BD13495379107909781B02A3
:10500000034300209942F5D15378012B08D0022B9D
:10501000F0D1002064220021FDF714F80120E9E717
:10502000D37891781B021943DB0507D54A0A100093
:1050300001231A407E331940FDF78CF801204A0AFB
:105040004042F5E7829C022000487047C0AA011048
:1050500070B5050014000120012909D15378002002
:10506000012B05D1637912791B021343072B00D062
:1050700070BD21002800024A9F3301F05FFAF7E774
:1050800018AA01100123037000487047F8A9011005
:105090004B780A781B0213438A7810B512041A431E
:1050A000CB781B0613439622D200934200D010BD4A
:1050B0000022012011004042FDF74CF8024B18601D
:1050C000024B19607047C046BC6B0020C06B0020CB
:1050D00010B5024B1878FBF70DFF10BD839C022022
:1050E000154B70B51A68002A22D0EFF3108172B602
:1050F00010680028FCD0BFF35F8F00200F4A596072
:1051000010701B68BFF35F8F186081F31088002454
:1051100000250B4E3078FBF7E1FE002804D1002477
:1051200000252900200070BD3078FBF7E3FEF8E78A
:10513000FA240025A400ECE79C740020849C022043
:10514000839C022070B5040000200E0001F016FBC5
:10515000002836D0002001F027FB002831D0FCF7D2
:10516000DDFD0023184A12184B41802109068B42AD
:1051700016D2164D280014F0EBFD002821D0002097
:1051800001F0FCFA00280FD101200021404200F07C
:1051900009FD03246442280014F0AAFD200070BD1C
:1051A00001220B4B5242E4E7002001F0FDFA0028F7
:1051B000EAD021003200002001F000FB041EEAD1F9
:1051C000E7E703246442E9E740420F00FC77002050
:1051D000FFFFFF7F10B5FCF7A1FD00230E4A121858
:1051E0004B41802109068B4202D301220B4B5242D4
:1051F0000B4C200014F0ACFD00280CD00120002145
:10520000404200F0CFFC002001F022FB0028F5D145
:10521000200014F06DFD10BD40420F00FFFFFF7F26
:10522000FC770020F8B5DE46574680B505000C0037
:10523000FCF774FD0023374A12184B418021090600
:105240008B4202D30122344B5242344908008A4631
:1052500014F07EFD002803D1C0BCBB46B246F8BDA9
:10526000002001F08BFA00284AD00026002C43DDF4
:105270002B4B9B4614E0A919002001F023FB0700EB
:1052800001200021404200F08DFC002001F0E0FAF6
:10529000FCF744FD224BF61918605960B4422BDD2F
:1052A000002001F02FFBA71B0200B84200DD3A00EE
:1052B000002AE0D101200021404200F073FC0020D0
:1052C00001F0C6FA002001F059FA002814D000209D
:1052D00001F018FB0028E1D1FCF720FD5B460F0030
:1052E0001A685B68002184460E4812184B419F42A1
:1052F00002D8D3D19445D1D9504614F0F9FCABE78C
:1053000000200021064B18605960504614F0F0FC54
:10531000A2E7C04640420F00FFFFFF7FFC7700205E
:10532000805F002020A1070030B52B4C85B0002104
:10533000200014F0F5FC00281CD1284B1A68002A24
:1053400016D0EFF3108172B610680028FCD0BFF3BE
:105350005F8F01242248596002781B68D2B2047022
:10536000BFF35F8F0020186081F31088002A17D0E8
:1053700005B030BD01200021404200F013FC0020A8
:1053800001F012FA0500200014F0B2FC002DEFD05D
:10539000144B1B68002BEBD0134A10689847E7E7C3
:1053A000FCF7AAFA0400FCF7B9FCFA2200239200E9
:1053B00012184B41802109068B4202D301220B4B6C
:1053C00052420121029100210191094920000091DE
:1053D000FCF796FACCE7C046FC7700209C740020CE
:1053E000849C0220BC6B0020C06B0020FFFFFF7F6D
:1053F000E1500010D02310B51B0684B01C68FCF7E8
:105400007BFAFCF779FBA04202D0002004B010BD6B
:105410002A4B002100201B7801F070FD284803680A
:10542000002B47D00120FBF7FBFFFF23254C26492B
:1054300020701840FBF778FD20780121FBF73CFD38
:105440000520FBF75FFD002826D1082200211F4818
:10545000FDF74AFFFCF750FA0400FCF75FFCFA2264
:105460000023920012184B41802109068B4202D37F
:105470000122174B5242012102910021019115494D
:1054800020000091FCF73CFA0028BEDB1248012105
:10549000FFF748FC0120B9E70120FBF7DBFC0B4BD1
:1054A00001001800FCF720F8002205200B49FBF74B
:1054B00065FDEBE7FBF7FCFFB4E7C04658B601100B
:1054C000FC770020839C0220295300109C7400204C
:1054D000FFFFFF7FE150001030100020D15000107E
:1054E000004870475CAB01100048704708AB0110E2
:1054F00010B5040017480378002B20D0002C06D1EB
:10550000154B16484380063BFF3B038010BD052C1E
:1055100019D8134BA400E05812490123013804E0C4
:1055200001330A800231142B0FD0C25C002AF7D15C
:10553000C022DBB25B00920008481343E5E711216B
:1055400000F01AF8DAE70020E0E7CA2303489B00DE
:10555000DBE7C0463879022009040000D46F002040
:10556000F0AA0110D66F002010B5024800F0D8F85C
:1055700010BDC0467477002030B54B1E012900D104
:10558000A7E0664A11780D092C0030349F2900D914
:10559000A2E00470012B00D1BEE00F21147821405D
:1055A0000C003034092900D998E04470022B00D156
:1055B000B2E054782509290030319F2C00D990E0C1
:1055C0008170032B00D1A7E00F2121400C00303463
:1055D000092900D987E0C470042B00D19CE094789D
:1055E0002509290030319F2C00D97FE00171052B5E
:1055F00000D191E00F2121400C003034092900D95D
:1056000076E04471062B00D186E0D4782509290084
:1056100030319F2C00D96EE08171072B00D17BE0E7
:105620000F2121400C003034092966D8C471082BA1
:1056300000D171E014792509290030319F2C5FD801
:105640000172092B68D00F2121400C003034092948
:1056500058D844720A2B5FD054792509290030317B
:105660009F2C52D881720B2B56D00F2121400C0059
:10567000303409294BD8C4720C2B4DD094792509AC
:10568000290030319F2C00D9073101730D2B43D0F5
:105690000F2121400C003034092901D937310C0089
:1056A00044730E2B38D0D1790C09220030329F2957
:1056B00000D9073282730F2B2ED00F220A4011001F
:1056C0003731092A01D830321100C173102B23D091
:1056D00010300023037030BD07345AE737310C0017
:1056E00063E707316CE737310C0074E707317DE77A
:1056F00037310C0085E707318EE737310C0095E72D
:1057000007319DE737310C00A3E70731AAE73731AE
:105710000C00C4720C2BB1D1C018DAE774770020EA
:1057200010B588B004000D2200216846FDF7DCFDAD
:105730000D22002104A8FDF7D7FD4B236A466846D9
:10574000137004A90D2214F0CBFA152108222000B1
:105750006944FDF7CFFD08B010BDC046F8B500F0B4
:1057600043F90C23194DFF22AB6705201849FBF7BD
:1057700005FC184C402200212000FDF7B5FD402714
:10578000002301262121144A66702783A26013603A
:1057900063545F31618445396354104A1049636032
:1057A000E2602787A1620B606362E26214F0F8FA9C
:1057B00080239B052E64EB6490230A4A0120EA5063
:1057C0008022094B5202DA64F8BDC0460000115035
:1057D000B10400205C7000208400105000011050C3
:1057E0008000105010D001000020115010B5012190
:1057F0000520FBF761FB10BD10B500220021024817
:1058000000F012F910BDC0467C700020044B1970E6
:10581000002904D080219023024A8902D150704788
:10582000799C0220002011500B785B0602D14B7846
:10583000052B00D070478A78014B1A60FAE7C04602
:1058400000001150F0B5C646C87800B58007830F38
:105850001800012B60D08F780A794B797F2139406D
:10586000FC091B024E001343334D32195201AA1892
:10587000977001276740577000275B055B0DD77055
:105880001383D076B846CA00012C32D02B4FBC46C9
:105890008F016244BC46AC446746BA604746176015
:1058A000002932D0264AC9009046624641445160E0
:1058B0003F223F339343022837D0224937190A68E1
:1058C0007F01D3180B602049EF19FA608B422ED864
:1058D00036197601AD19EB7E1C499B064A401343ED
:1058E0008022120613436A681360012080BCB84608
:1058F000F0BD174FBC468F016244BC46AC446746BE
:10590000BA6247461760002908D1002364012C19A8
:105910006360104BE360E8E70020E7E70B4AC9004B
:105920009046624641445162C2E75B00C5E7FCF71E
:105930003BFCFA68CCE7C0465C7000208400105045
:105940000400105084740020FF0F1050000010500D
:10595000800010500001105010B514F021FA10BD55
:1059600010B57F200C0020404000E4091100001910
:105970001A00034B4001C01800F056F8012010BD7A
:105980005C7000207F23180010B50840CA090B4244
:1059900003D107497D3B9B1A8B664000801880220B
:1059A000044B40010021C018120114F0E1F910BDB0
:1059B000002011505C7000207F22130010B50B40B6
:1059C0000A4200D110BDC9095B005B1804485B01A5
:1059D000C018002300220349C37014F0C9F9F1E78D
:1059E0005C700020FFF7FFFF80220A4B520410B5C5
:1059F0001A60094B09491A6010000B689843FBD1E3
:105A00008022002152010648FDF76EFC0922054B59
:105A10005A6710BD00E0004000F0004008C00040A0
:105A20000000105000001150002310B5C382013354
:105A3000828283760161040014F0AAF9002804D060
:105A400080219023074A8902D150200014F078F970
:105A5000002802D00123237710BD200014F080F924
:105A6000FAE7C046002011507047C0467047C04654
:105A700000207047002070477047C0467047C046FE
:105A80007047C0467047C046024B5878431E984145
:105A9000C0B27047A0660020024B18784007C00FC4
:105AA0007047C046A0660020F0B5D6464F46464631
:105AB000C0B5314B07009A461B780E00FF2B01D072
:105AC000012044E0002941D0002154222B48FDF759
:105AD0000BFC00222A4C2B4B20001A70FBF7E8FC31
